:020000040800F2
:100000004804002051010008C1270008F11D000824
:10001000BD270008BD010008352F000800000000C2
:10002000000000000000000000000000912D00080A
:10003000C10100080000000045280008F12D00085B
:100040006B0100086B0100086B010008812D00089E
:100050006B0100086B0100086B0100086B010008D0
:100060006B0100086B0100086B0100086B010008C0
:100070006B0100086B0100086B0100086B010008B0
:100080006B0100086B0100086B0100086B010008A0
:100090006B0100086B0100086B0100086B01000890
:1000A0006B0100086B0100086B0100086B01000880
:1000B0006B0100086B0100086B0100086B01000870
:1000C0006B0100086B0100086B0100086B01000860
:1000D0006B0100086B0100086B0100086B01000850
:1000E0006B0100086B0100086B0100086B01000840
:1000F0006B0100086B0100086B0100086B01000830
:100100006B0100086B0100086B0100086B0100081F
:100110006B0100086B0100086B0100086B0100080F
:100120006B0100086B0100086B0100086B010008FF
:100130006B0100086B0100086B010008DFF80CD0B0
:1001400000F02AF8004800470D300008480400205D
:100150000648804706480047FEE7FEE7FEE7FEE761
:10016000FEE7FEE7FEE7FEE7FEE7FEE7B52E000846
:100170003D010008D2B201E000F8012B491EFBD27C
:1001800070470022F6E710B513460A4604461946A2
:10019000FFF7F0FF204610BD064C074D06E0E06873
:1001A00040F0010394E8070098471034AC42F6D3BE
:1001B000FFF7C8FF3C3100085C310008FFE7FEE7AD
:1001C0007047000083B0014602900091FFE702985B
:1001D000411E0291002802D0FFE700BFF7E703B0FD
:1001E0007047000080B586B001460590059800284C
:1001F000039101D1FFE747E001F0F0FD40F21C0060
:10020000C2F2000001F03EFB4FF0040ECDF810E00A
:10021000DDF814E0BEF5803F029004D3FFE74FF60F
:10022000FF700590FFE70598411E40F21C00C2F2E6
:100230000000042201F09EFB002803D0FFE701F03C
:10024000B9FD21E040F21800C2F200000021017067
:1002500040BF20BF20BFFFE740F21800C2F20000FD
:100260000078002804D1FFE7012000F0B3FAF3E79B
:1002700040F21C00C2F2000001F004FB019002F009
:10028000BBFD01F097FDFFE706B080BD81B0EFF345
:10029000108072B60090FFE7FEE700008BB00A46C0
:1002A00003460A9009910020089005920493FFE705
:1002B000099800680899C840002800F08E81FFE77F
:1002C000099800680899012202FA01F10840079094
:1002D0000798002800F07D81FFE70998406800F04A
:1002E0000300012807D0FFE70998406800F00300E9
:1002F00002282FD1FFE70A988068069008984000EE
:10030000032101FA00F0069921EA000006900998FD
:10031000C0680899490088400699084306900698E5
:100320000A9988600A98406806900898012101FAA5
:1003300000F0069921EA0000069009984068C0F391
:1003400000100899884006990843069006980A9973
:100350004860FFE70998406800F00300032818D0C0
:10036000FFE70A98C068069008984000032101FA48
:1003700000F0069921EA0000069009988068089923
:100380004900884006990843069006980A99C86073
:10039000FFE70998406800F00300022826D1FFE734
:1003A0000A9808996FF0030202EA51010844006AB2
:1003B0000690089800F0070080000F2101FA00F075
:1003C000069921EA0000069009980069089901F051
:1003D00007018900884006990843069006980A9903
:1003E000089B02EA530211440862FFE70A9800687A
:1003F000069008984000032101FA00F0069921EACE
:10040000000006900998406800F003000899490030
:10041000884006990843069006980A99086009984A
:1004200080798007002800F0D380FFE7089820F04B
:1004300003000821C4F2010140580690089800F01A
:10044000030080000F2101FA00F0069921EA000064
:1004500006900A98B0F1904F03D1FFE70020039077
:1004600034E00A9840F20041C4F60001884203D10A
:10047000FFE70120029026E00A9840F60001C4F64A
:100480000001884203D1FFE70220019018E00A989A
:1004900040F60041C4F60001884203D1FFE7032083
:1004A00000900AE00A9841F20001C4F60001072218
:1004B000884208BF04220092FFE700980190FFE7FE
:1004C00001980290FFE702980390FFE703980899CC
:1004D00001F00301890088400699084306900698B8
:1004E000089921F003010822C4F20102885040F665
:1004F0000000C5F60000006806900798069921EAFA
:100500000000069009988079C006002805D5FFE70D
:100510000798069908430690FFE7069840F6000101
:10052000C5F60001086040F60400C5F6000000684A
:1005300006900798069921EA0000069009988079AC
:100540008006002805D5FFE707980699084306901E
:10055000FFE7069840F60401C5F60001086040F682
:100560008000C5F60000006806900798069921EA09
:100570000000069009988079C007002805D0FFE7A1
:100580000798069908430690FFE7069840F6800111
:10059000C5F60001086040F68400C5F6000000685A
:1005A00006900798069921EA00000690099880793C
:1005B0008007002805D5FFE70798069908430690AD
:1005C000FFE7069840F68401C5F600010860FFE7E2
:1005D000FFE70898013008906AE60BB0704700000A
:1005E00084B00A4603460390ADF80A1003980069E8
:1005F000BDF80A1008420192009304D0FFE70120E1
:100600008DF8090003E000208DF80900FFE79DF850
:10061000090004B07047000080B585B013468C46D1
:1006200086460490ADF80E108DF80D209DF80D0053
:1006300000280293CDF804C0CDF800E005D0FFE714
:10064000BDF80E000499886104E0BDF80E0004991D
:100650008862FFE705B080BD40F24000C2F20000B2
:100660000068704740F21000C2F200000068704756
:1006700040F20C00C2F20000007840F24001C2F2E9
:1006800000010A68104408607047000080B582B01D
:1006900000208DF8070044F20000C5F60000016854
:1006A00041F480710160032000F08AF8012000F01D
:1006B0000FF8002804D0FFE701208DF8070002E0C2
:1006C00000F04CF8FFE79DF8070002B080BD000085
:1006D00080B584B00146039000208DF80B0040F2F5
:1006E0000C00C2F200000078002801912ED0FFE734
:1006F00000F0E4FB40F20C0EC2F2000E9EF800E0A7
:100700004FF47A71B1FBFEF1B0FBF1F001F05CFB4C
:10071000002816D1FFE703980F280DD8FFE70399AB
:100720004FF0FF30002200F027F8039840F210014C
:10073000C2F20001086003E001208DF80B00FFE722
:1007400003E001208DF80B00FFE703E001208DF8A6
:100750000B00FFE79DF80B0004B080BD7047000060
:1007600080B582B001468DF807009DF90700009121
:1007700002F0E2FB02B080BD80B58AB013468C4621
:1007800086468DF82700089107920593CDF810C092
:10079000CDF80CE002F0ECFB06909DF927000699DD
:1007A000089A079B0290084611461A4602F00AF87A
:1007B000029901900846019902F0E2FB0AB080BD5F
:1007C00080B582B0014601900198009102F0FEFBD5
:1007D00002B080BD82B001468DF8070040F20040B3
:1007E000C5F600000268022363F3020202604EF6BF
:1007F0001050CEF20000026842F0040202609DF840
:1008000007000128009102D1FFE730BF03E040BF9D
:1008100020BF20BFFFE74EF61050CEF20000016867
:1008200021F00401016002B07047000040F2004076
:10083000C5F60000006800F4C060704740F2004058
:10084000C5F60000016841F4807101607047000046
:1008500080B58AB00146099000208DF81F008DF800
:100860001E00099800684006002803913AD5FFE76A
:100870000998006B0028029017D0FFE70298B0F5A6
:10088000800F0AD0FFE70298B0F5000F15D0FFE700
:100890000298B0F5400F0FD010E00C20C5F6000014
:1008A000016841F4803101600CE00998043001F0E6
:1008B000E5FF8DF81F0005E004E003E001208DF85E
:1008C0001F00FFE79DF81F00002805D1FFE70998EA
:1008D000006B01F0D5FE04E09DF81F008DF81E00AE
:1008E000FFE7FFE7099800680005002857D5FFE7F4
:1008F00001F046FC06900698DDF824E0DEF840E0C2
:10090000704546D0FFE7FFF799FFDDF818E0BEF12C
:10091000000F05D1FFE70998006C01F0A1FE33E05C
:100920009020C5F6000001680591019001F00EFCD1
:1009300001F0D2FD059820F440700999096C084334
:10094000059005980199086001F0CCFC01281AD1A6
:10095000FFE7FFF781FE0890FFE701F0D3FC0128D5
:1009600010D0FFE7FFF778FEDDF820E0A0EB0E00E7
:1009700041F2893E704504D3FFE703208DF81F0044
:1009800000E0EAE7FFE7FFE79DF81F008DF81E0093
:1009900004E09DF81F008DF81E00FFE7FFE70998AF
:1009A0000068C007002805D0FFE70998806901F0BA
:1009B000A7FEFFE7099800688007002805D5FFE734
:1009C0000998C06901F01CFEFFE709980068C0069D
:1009D000002805D5FFE70998806A01F0FDFDFFE7D3
:1009E000099800688006002805D5FFE70998C06AC5
:1009F00001F0F2FDFFE7099800684007002805D5DF
:100A0000FFE70998006A01F0D1FDFFE70998006847
:100A10000007002805D5FFE70998406A01F0C6FDE8
:100A2000FFE709980068C00500282AD5FFE7099864
:100A3000406B01F075FE0998406BB0F1006F08D172
:100A4000FFE70C20C5F60000016841F080710160ED
:100A5000FFE70998406BB0F1806F11D1FFE709986B
:100A6000043001F06FFF8DF81F009DF81F00002873
:100A700005D0FFE79DF81F008DF81E00FFE7FFE798
:100A8000FFE7099800688005002833D5FFE7FFE7F6
:100A90000998806BB0F1804F0BD0FFE70998806B0D
:100AA000B0F1004F05D0FFE70998806B002805D111
:100AB000FFE70998806B01F0C3FD0BE00998806B9C
:100AC00020F080500490002001F0BAFD049801F05D
:100AD0005DFDFFE7FFE70998806BB0F1C05F08D1CB
:100AE000FFE70C20C5F60000016841F0807101604D
:100AF000FFE7FFE709980068400500282AD5FFE7CF
:100B00000998C06B01F0F0FC0998C06BB0F1005F70
:100B100008D1FFE70C20C5F60000016841F48031E0
:100B20000160FFE70998C06BB0F1805F11D1FFE76A
:100B30000998043001F06AFF8DF81F009DF81F002E
:100B4000002805D0FFE79DF81F008DF81E00FFE785
:100B5000FFE7FFE709980068C004002805D5FFE714
:100B60000998406C01F05CFDFFE70998006880047B
:100B7000002809D5FFE70998C06C01F0A1FD09988C
:100B8000806C01F08DFDFFE79DF81E000AB080BD6E
:100B900080B586B00A460346049003910498002865
:100BA0000192009304D1FFE701208DF8170081E145
:100BB000039844F20001C5F60001096801F007013D
:100BC000884228D9FFE744F20000C5F6000001681A
:100BD00021F00701039A11430160FFF73DFD0290E8
:100BE000FFE744F20000C5F60000006800F00700CF
:100BF000039988420ED0FFE7FFF72EFDDDF808E0ED
:100C0000A0EB0E00032804D3FFE703208DF81700A4
:100C100050E1E6E7FFE704980068800700281CD54C
:100C2000FFE70498806801F081FCFFF715FD029052
:100C3000FFE701F017FB00280ED1FFE7FFF70CFDDF
:100C4000DDF808E0A0EB0E00032804D3FFE7032043
:100C50008DF817002EE1ECE7FFE7049800688006A6
:100C600000281CD5FFE70498406901F057FAFFF708
:100C7000F3FC0290FFE701F0EDFA00280ED1FFE748
:100C8000FFF7EAFCDDF808E0A0EB0E00032804D330
:100C9000FFE703208DF817000CE1ECE7FFE704986D
:100CA0000068400600281CD5FFE70498806901F021
:100CB0002BFCFFF7D1FC0290FFE701F0EBFA0028D4
:100CC0000ED1FFE7FFF7C8FCDDF808E0A0EB0E004F
:100CD000032804D3FFE703208DF81700EAE0ECE7D0
:100CE000FFE704980068400700281CD5FFE7049838
:100CF000C06801F02BFCFFF7AFFC0290FFE701F0AA
:100D0000B9FA00280ED1FFE7FFF7A6FCDDF808E0EE
:100D1000A0EB0E00032804D3FFE703208DF8170093
:100D2000C8E0ECE7FFE704980068000700281DD53D
:100D3000FFE704980069C00001F018FCFFF78CFC85
:100D40000290FFE701F09EFA00280ED1FFE7FFF7BF
:100D500083FCDDF808E0A0EB0E00032804D3FFE7D6
:100D600003208DF81700A5E0ECE7FFE70498006882
:100D7000C00700285CD0FFE70498406802280AD129
:100D8000FFE701F023FA002804D1FFE701208DF8E6
:100D900017008FE029E00498406803280AD1FFE794
:100DA00001F094FB002804D1FFE701208DF8170023
:100DB00080E019E00498406800280AD1FFE701F0BC
:100DC0001BFB002804D1FFE701208DF8170071E01C
:100DD00009E001F029FA002804D1FFE701208DF88D
:100DE000170067E0FFE7FFE7FFE70498406801F0BE
:100DF00077FCFFF731FC0290FFE701F0C9F9DDF85D
:100E000010E0DEF804E0B0EB8E0F10D0FFE7FFF744
:100E100023FCDDF808E0A0EB0E0041F2893E7045AE
:100E200004D3FFE703208DF8170043E0E5E7FFE771
:100E3000039844F20001C5F60001096801F00701BA
:100E4000884228D2FFE744F20000C5F6000001689E
:100E500021F00701039A11430160FFF7FDFB0290A7
:100E6000FFE744F20000C5F60000006800F007004C
:100E7000039988420ED0FFE7FFF7EEFBDDF808E0AC
:100E8000A0EB0E00032804D3FFE703208DF8170022
:100E900010E0E6E7FFE700F011F840F2080EC2F2BA
:100EA000000ECEF80000FFF7DDFBFFF711FC8DF818
:100EB0001700FFE79DF8170006B080BD80B582B02F
:100EC00000F012F8019001F053F900F0F0008008F2
:100ED00043F2940EC0F6000E5EF80000DDF804E068
:100EE000BEFBF0F002B080BD80B58AB001F050F9D1
:100EF0000690069800280DD1FFE701F06BFA00F08C
:100F0000F000800843F2D40EC0F6000E5EF8000038
:100F1000089077E00698042806D1FFE742F20040E7
:100F2000C0F2F40008906CE00698082812D1FFE7A0
:100F300001F046F9012806D1FFE742F20040C0F275
:100F4000F400089005E044F60000C0F2E8100890B4
:100F5000FFE755E001F0A2FA0990099801280590F1
:100F600020D0FFE70598022804D0FFE70598032862
:100F700006D018E042F20040C0F2F40007901FE0F3
:100F800001F01EF9012806D1FFE742F20040C0F24D
:100F9000F400079005E044F60000C0F2E810079066
:100FA000FFE70DE0FFE701F015FA00F0F000800820
:100FB00043F2D40EC0F6000E5EF800000790FFE783
:100FC0000798049001F072FADDF810E00EFB00F0D3
:100FD000039001F05BFA4FF0010E0EEB1010039935
:100FE000B1FBF0F0CDF808E0019001F067FA02994A
:100FF00001EB5070DDF804E0BEFBF0F00890FFE775
:10100000FFE7FFE708980AB080BD000010B58EB07A
:1010100001460C900C980028029105D1FFE70120B1
:101020008DF8370000F02ABC0C9800688006002874
:1010300040F1AA80FFE701F0ABF80A9001F02EFA28
:1010400009900A98002808D0FFE70A980C2858D180
:10105000FFE70998012854D1FFE70C98C0690028E0
:1010600005D1FFE701208DF8370000F007BC0C9890
:10107000406A019001F0AEF9DDF804E0864514D92C
:10108000FFE70C98406A01F0C5FD002804D0FFE797
:1010900001208DF83700F1E30C98406A01F0C2F9A5
:1010A0000C98006A01F0AEF913E00C98406A01F068
:1010B000B9F90C98006A01F0A5F90C98406A01F0A2
:1010C000A9FD002804D0FFE701208DF83700D5E303
:1010D000FFE7FFF7F3FE40F2080EC2F2000ECEF873
:1010E000000040F21000C2F200000068FFF7F0FAC2
:1010F000002804D0FFE701208DF83700BEE3FFE7AA
:1011000041E00C98C069002822D0FFE701F05AF9AD
:10111000FFF7A2FA0B90FFE701F06EF900280ED15D
:10112000FFE7FFF799FADDF82CE0A0EB0E000328AB
:1011300004D3FFE703208DF837009FE3ECE70C981A
:10114000406A01F06FF90C98006A01F05BF919E050
:1011500001F030F9FFF780FA0B90FFE701F04CF94E
:1011600000280ED0FFE7FFF777FADDF82CE0A0EBC0
:101170000E00032804D3FFE703208DF837007DE33A
:10118000ECE7FFE7FFE7FFE70C980068C0070028DF
:1011900061D0FFE700F0FCFF089001F07FF90790B5
:1011A0000898082808D0FFE708980C280ED1FFE718
:1011B000079803280AD1FFE70C984068002804D15B
:1011C000FFE701208DF8370058E343E0FFE70C9874
:1011D0004068B0F5803F03D1FFE700F0E9FF02E08F
:1011E00000F0DEFFFFE7FFE70C984068002818D00A
:1011F000FFE7FFF731FA0B90FFE700F0E7FF002869
:101200000ED1FFE7FFF728FADDF82CE0A0EB0E0087
:10121000652804D3FFE703208DF837002EE3ECE7C1
:1012200017E0FFF719FA0B90FFE700F0CFFF002857
:101230000ED0FFE7FFF710FADDF82CE0A0EB0E0070
:10124000652804D3FFE703208DF8370016E3ECE7A9
:10125000FFE7FFE7FFE70C9800688007002860D5EC
:10126000FFE700F095FF069001F018F90590069849
:10127000042808D0FFE706980C2813D1FFE705984B
:1012800002280FD1FFE70C98C068002804D1FFE7BF
:1012900001208DF83700F1E20C98006900F0CAFFD8
:1012A000FFE73DE00C98C06800281ED0FFE700F083
:1012B000B3FFFFF7D1F90B90FFE700F0B5FF00286F
:1012C0000ED1FFE7FFF7C8F9DDF82CE0A0EB0E0028
:1012D000032804D3FFE703208DF83700CEE2ECE7C4
:1012E0000C98006900F0A6FF19E000F08DFFFFF7F1
:1012F000B3F90B90FFE700F097FF00280ED0FFE74F
:10130000FFF7AAF9DDF82CE0A0EB0E00032804D3C8
:10131000FFE703208DF83700B0E2ECE7FFE7FFE7D7
:10132000FFE70C98006800F00800082807D0FFE7E6
:101330000C980068C006002840F1C880FFE70C98B0
:101340004069002800F08E80FFE70C980068C00616
:10135000002856D5FFE700F0FDFF00281AD1FFE76F
:1013600000F0F0FFFFF778F90B90FFE700F0F2FFD5
:1013700000280ED1FFE7FFF76FF9DDF82CE0A0EBB6
:101380000E00032804D3FFE703208DF8370075E231
:10139000ECE7FFE700F0EEFFFFF75EF90B90FFE7E9
:1013A00000F0F0FF00280ED1FFE7FFF755F9DDF858
:1013B0002CE0A0EB0E00042804D3FFE703208DF8F7
:1013C00037005BE2ECE70C98806900F0E3FF00F087
:1013D000B1FFFFF741F90B90FFE700F0BBFF0028DA
:1013E0000ED0FFE7FFF738F9DDF82CE0A0EB0E0098
:1013F000032804D3FFE703208DF837003EE2ECE733
:101400002FE000F09FFFFFF727F90B90FFE700F0B8
:10141000A1FF00280ED1FFE7FFF71EF9DDF82CE051
:10142000A0EB0E00032804D3FFE703208DF837005C
:1014300024E2ECE700F096FFFFE700F0A3FF0028AE
:101440000ED0FFE7FFF708F9DDF82CE0A0EB0E0067
:10145000042804D3FFE703208DF837000EE2ECE701
:10146000FFE732E000F07EFFFFF7F6F80B90FFE7B2
:1014700000F088FF00280ED0FFE7FFF7EDF8DDF859
:101480002CE0A0EB0E00042804D3FFE703208DF826
:101490003700F3E1ECE700F04DFFFFF7DDF80B90CC
:1014A000FFE700F057FF00280ED0FFE7FFF7D4F862
:1014B000DDF82CE0A0EB0E00032804D3FFE70320A7
:1014C0008DF83700DAE1ECE7FFE7FFE70C980068FA
:1014D000400700287BD5FFE740F20040C5F600003A
:1014E0000068C00500281ED4FFE7FFF7A7F9FFF743
:1014F000B3F80B90FFE740F20040C5F6000000682B
:10150000C00500280ED4FFE7FFF7A6F8DDF82CE0B1
:10151000A0EB0E00032804D3FFE703208DF837006B
:10152000ACE1E8E7FFE7FFE70C988068012803D10A
:10153000FFE700F0C7FE0FE00C988068052805D192
:10154000FFE700F0C7FE00F0BDFE04E000F0AAFED9
:1015500000F0B0FEFFE7FFE7FFE70C988068002887
:101560001AD0FFE7FFF778F80B90FFE700F0C2FE14
:10157000002810D1FFE7FFF76FF8DDF82CE0A0EBB3
:101580000E0041F2893E704504D3FFE703208DF839
:10159000370073E1EAE719E0FFF75EF80B90FFE729
:1015A00000F0A8FE002810D0FFE7FFF755F8DDF89F
:1015B0002CE0A0EB0E0041F2893E704504D3FFE71A
:1015C00003208DF8370059E1EAE7FFE7FFE70C98C1
:1015D0000068400600283AD5FFE70C98806A00288A
:1015E0001AD0FFE700F000FEFFF736F80B90FFE798
:1015F00000F002FE00280ED1FFE7FFF72DF8DDF81E
:101600002CE0A0EB0E00032804D3FFE703208DF8A5
:10161000370033E1ECE719E000F0DEFDFFF71CF8DE
:101620000B90FFE700F0E8FD00280ED0FFE7FFF782
:1016300013F8DDF82CE0A0EB0E00032804D3FFE73D
:1016400003208DF8370019E1ECE7FFE7FFE70C987E
:10165000C06A002800F00E81FFE700F099FD0490B9
:101660000C20C5F60000006803900C98C06A0228A0
:1016700040F0D080FFE7039800F003000C99096B5D
:10168000884229D1FFE7039800F070000C99496B5C
:10169000884221D1FFE7039800F4FE400C99896B42
:1016A000B1EB102F18D1FFE7039800F478100C99D4
:1016B000C96B884210D1FFE7039800F060600C9975
:1016C000096C884208D1FFE7039800F060400C994C
:1016D000496C88426FD0FFE704980C2866D0FFE77A
:1016E0004FF0B04000684001002804D5FFE701201A
:1016F0008DF83700C2E000F0B9FEFEF7ADFF0B90A9
:10170000FFE74FF0B0400068800100280ED5FFE7EA
:10171000FEF7A2FFDDF82CE0A0EB0E00032804D3B7
:10172000FFE703208DF83700A8E0EAE70C20C5F6B4
:101730000000016848F28C02C1F2C11211400C9AFB
:10174000136BD2F834C0D2F838E0D46B43EA0C0300
:1017500043EA0E232343D2F840C043EA0C03526C01
:101760001A4311430160009000F088FE0098016860
:1017700041F080510160FEF76FFF0B90FFE74FF0E3
:10178000B0400068800100280ED4FFE7FEF764FF38
:10179000DDF82CE0A0EB0E00032804D3FFE70320C4
:1017A0008DF837006AE0EAE7FFE703E001208DF8F3
:1017B000370063E02DE04FF0B04000688001002862
:1017C00026D4FFE700F05AFE40F20C0EC5F6000EDC
:1017D000DEF8000040F08050CEF80000FEF73CFF3D
:1017E0000B90FFE74FF0B0400068800100280ED456
:1017F000FFE7FEF731FFDDF82CE0A0EB0E00032839
:1018000004D3FFE703208DF8370037E0EAE7FFE76E
:10181000FFE72EE004980C2826D0FFE700F026FE14
:10182000FEF71AFF0B90FFE74FF0B0400068800111
:1018300000280ED5FFE7FEF70FFFDDF82CE0A0EB48
:101840000E00032804D3FFE703208DF8370015E0CE
:10185000EAE70C20C5F6000001684FF6FC72CEF6F0
:10186000FE621140016003E001208DF8370005E0C1
:10187000FFE7FFE700208DF83700FFE79DF837000E
:101880000EB010BD80B584B00146029000200190DA
:101890000091FFE7029890F82000012804D1FFE7AB
:1018A00002208DF80F0060E00298012180F82010DE
:1018B000FFE7FFE70298022180F82110FFE7029876
:1018C0000068CA2141620298006853214162FFE723
:1018D00002980068816821F4806181600298006844
:1018E000816821F480418160FEF7B6FE0190FFE738
:1018F00002980068C06800F004000021B1EB900F6E
:101900001FD1FFE7FEF7A8FEDDF804E0A0EB0E0014
:10191000B0F57A7F14D9FFE7FFE702980068FF214E
:101920004162FFE70298032180F82110FFE7029847
:10193000002180F82010FFE703208DF80F0014E04D
:10194000D6E7FFE702980068FF214162FFE70298AF
:10195000012180F82110FFE70298002180F8201073
:10196000FFE700208DF80F00FFE79DF80F0004B09F
:1019700080BD000080B58AB013468C46864608902C
:101980000791069240F20800C2F200000068400988
:1019900044F6D351C1F26201A0FB010189094FF461
:1019A0007A72514305910493CDF80CC0CDF808E04C
:1019B0000190FFE7089890F82000012804D1FFE784
:1019C00002208DF82700CBE00898012180F8201034
:1019D000FFE7FFE70898022180F82110FFE7089849
:1019E0000068CA2141620898006853214162FFE7FC
:1019F0000898006880684005002828D5FFE7FFE7C1
:101A00000598013805900598002814D1FFE7FFE7F5
:101A100008980068FF214162FFE70898032180F8D9
:101A20002110FFE70898002180F82010FFE703202D
:101A30008DF8270094E0FFE708980068C06800F080
:101A400004000021B1EB900FDAD1FFE7FFE708981F
:101A50000068816821F48061816008980068C0682E
:101A600060F4906020F4806008990968C86040F2D2
:101A70000800C2F200000068400944F6D351C1F2E8
:101A80006201A0FB010189094FF47A72514305916B
:101A90000090FFE70598013805900598002814D1BB
:101AA000FFE7FFE708980068FF214162FFE7089819
:101AB000032180F82110FFE70898002180F820100A
:101AC000FFE703208DF827004AE0FFE70898006849
:101AD000C06800F004000021B1EB900FDAD0FFE7FE
:101AE00008980068816821F00701816006980899CC
:101AF00009688A68104388600798089909684861EE
:101B000040F68000C5F60000016841F40021016044
:101B100040F60000C5F60000016841F400210160B4
:101B200008980068816841F48041816008980068E5
:101B3000816841F480618160FFE708980068FF21B7
:101B40004162FFE70898012180F82110FFE708981B
:101B5000002180F82010FFE700208DF82700FFE724
:101B60009DF827000AB080BD82B00146019040F286
:101B70001800C2F2000001220270009102B070470A
:101B800080B582B00146019040F60C00C5F6000019
:101B90004FF40022026001980068C06800F4806081
:101BA0000022B2EB902F00910ED0FFE70198006861
:101BB000C06860F4906020F4806001990968C86092
:101BC0000198FFF7D1FFFFE70198012180F821106C
:101BD00002B080BD80B584B0014602900298002812
:101BE000009104D1FFE701208DF80F0081E00298F9
:101BF00090F82100002808D1FFE70298002180F822
:101C00002010029800F07AF8FFE70298022180F88D
:101C1000211002980068C06800F010000021B1EBAC
:101C2000101F53D1FFE7FFE702980068CA21416205
:101C30000298006853214162FFE7029801F030F8F2
:101C40008DF807009DF80700002824D1FFE70298CF
:101C5000006881684FF6BF72CFF68F7211408160C5
:101C6000029801684268036980691A4310438A68D0
:101C70001043886002980168C06808610298016892
:101C800080680A6942EA00400861029801F050F851
:101C90008DF80700FFE79DF8070000280FD1FFE748
:101CA00002980068C16C21F00301C16402980168C8
:101CB0004269C0691043CA6C1043C864FFE7FFE77C
:101CC00002980068FF214162FFE703E000208DF8E1
:101CD0000700FFE79DF80700002805D1FFE70298FD
:101CE000012180F82110FFE79DF807008DF80F0013
:101CF000FFE79DF80F0004B080BD000080B596B0EE
:101D00000146159001A8502200911146FEF739FABC
:101D10001598006842F60001C4F20001884216D10D
:101D2000FFE74FF4006001904FF48070119001A81C
:101D3000FEF78EFD002803D0FFE7FEF7A7FAFFE7C6
:101D400000F0FCF94FF4806000F0D4F9FFE716B022
:101D500080BD000080B584B0014602900020019053
:101D6000029800684FF65F72C0F20102C2600091F3
:101D7000FEF772FC0190FFE702980068C0688006D9
:101D800000280FD4FFE7FEF767FCDDF804E0A0EBC6
:101D90000E00B0F57A7F04D9FFE703208DF80F001D
:101DA00004E0E9E700208DF80F00FFE79DF80F0041
:101DB00004B080BD4EF21000CEF20000016841F088
:101DC000020101607047000080B582B001460190B9
:101DD0000198009100F0DEFF02B080BD4EF21000CD
:101DE000CEF20000016821F002010160704700009E
:101DF000FFE7FEE780B588B0042000F067F9002017
:101E0000079006900590049003904FF0030ECDF8D4
:101E10000CE04FF0010ECDF810E0CDF814E0069084
:101E200040F60000C4F6000003A90290CDF804E0DB
:101E3000FEF734FA02210298019AFEF7EDFB0298B0
:101E40000199019AFEF7E8FB08B080BD80B584B027
:101E500040F60000C4F60000012102900191019AB1
:101E6000FEF7DAFBA020FEF7ADF902210298FEF79B
:101E7000B7FB002804D0FFE701208DF80F0003E036
:101E800000208DF80F00FFE740F60000C4F60000C8
:101E900001210022FEF7C0FBA020FEF793F99DF878
:101EA0000F0004B080BD000080B586B001468DF8FB
:101EB000170000208DF815000491FFE79DF815002C
:101EC000072844DCFFE79DF8170000F080008DF83C
:101ED00016009DF81600002809D0FFE740F6000024
:101EE000C4F6000002210122FEF796FB08E040F64E
:101EF0000000C4F6000002210022FEF78DFBFFE780
:101F000040F60000C4F60000012103900291029AFD
:101F1000FEF782FBA0200190FEF754F900220398FF
:101F20000299FEF779FB02210398029AFEF774FBEF
:101F30000198FEF747F99DF8170040008DF817004B
:101F4000FFE79DF8150001308DF81500B6E706B0E3
:101F500080BD000080B586B040F60000C4F60000E9
:101F6000012105900491049AFEF756FB0220059981
:101F7000039008460399049AFEF74EFBA0200290B6
:101F8000FEF720F900200599019008460399019A6F
:101F9000FEF742FB0298FEF715F905980499019A9D
:101FA000FEF73AFB05980399049AFEF735FB029871
:101FB000FEF708F906B080BD80B584B040F6000099
:101FC000C4F600000221002203900291FEF724FBD8
:101FD00001200399019008460199019AFEF71CFB24
:101FE000A0200090FEF7EEF803980299019AFEF700
:101FF00013FB0098FEF7E6F804B080BDB0B58AB0D8
:102000009C4696460C4605468DF826000891ADF88C
:102010001E200693CDF810C0CDF80CE00294019577
:10202000FFF798FF9DF82600FFF73EFFFFF70EFF32
:10203000012807D1FFE7FFF7BFFF4FF0010E8DF832
:1020400027E02AE00020ADF81600FFE7BDF81600F3
:10205000BDF81E10884219DAFFE70898BDF816107F
:10206000405CFFF721FFFFF7F1FE012807D1FFE7F2
:10207000FFF7A2FF4FF0010E8DF827E00DE0FFE71C
:10208000BDF816000130ADF81600DFE7FFF794FF4A
:102090004FF0000E8DF827E0FFE79DF827000AB00B
:1020A000B0BD000084B00146039003984C22C5F6F1
:1020B00000021368184310601068039A10400290E1
:1020C00002980191009004B07047000084B001466E
:1020D000039003984C22C5F6000213681843106061
:1020E0001068039A1040029002980191009004B089
:1020F0007047000084B00146039003985822C5F64B
:1021000000021368184310601068039A1040029090
:1021100002980191009004B07047000082B001461F
:10212000019040F20810C5F60000026822F0F002AB
:10213000019B1A430260009102B070479020C5F6DF
:102140000000016841F40041016070479020C5F62D
:102150000000016841F480310160704740F20810CE
:10216000C5F60000006800F00F0000017047000095
:102170000820C5F60000006800F0F000704700007D
:102180009020C5F60000006800F440707047000021
:102190000820C5F60000006800F00C007047000041
:1021A0004FF0B040016821F48031016070470000B9
:1021B0004FF0B040016841F4803101607047000089
:1021C0004FF0B0400068C0F3005070474FF0B0408F
:1021D0000068C0F3404070479820C5F600000168D1
:1021E00021F00101016070479820C5F600000168E8
:1021F00041F00101016070479820C5F600000068B9
:10220000C0F34000704700004FF0B040016821F477
:1022100080710160704700004FF0B040016841F4E8
:1022200080710160704700004FF0B0400068C0F35B
:102230008020704782B0014601900420C5F600005E
:10224000026822F0FE42019B42EA036202600091B2
:1022500002B0704740F20810C5F600000068C0F3F5
:10226000404070470820C5F600000068C0F30040F9
:10227000704700000820C5F600000068C0F3404029
:10228000704700000820C5F600000068C0F38040D9
:102290007047000040F20810C5F600000068C0F367
:1022A000004070479020C5F60000016821F0010150
:1022B000016070479020C5F60000016821F004011C
:1022C000016070479020C5F60000016841F00101EF
:1022D000016070479020C5F60000016841F00401DC
:1022E000016070479020C5F60000006800F0010012
:1022F000704700009020C5F600000068C0F3400061
:10230000704700009020C5F600000068C0F3400050
:102310007047000082B0014601909020C5F6000091
:10232000026822F01802019B1A430260009102B079
:10233000704700009420C5F60000016821F00101FB
:10234000016070479420C5F60000016841F001016A
:10235000016070479420C5F600000068C0F340009B
:10236000704700009420C5F60000016821F00401C8
:10237000016070479420C5F60000016841F0040137
:10238000016070479420C5F600000068C0F3C000EB
:102390007047000082B0014601909420C5F600000D
:1023A000026822F47062019B42EA032202600091FB
:1023B00002B070474FF0B040016821F001010160A8
:1023C000704700004FF0B040016841F0010101602A
:1023D0007047000081B04FF0B040006800F0F0009E
:1023E00000900098B12803D3FFE7B0200090FFE7EA
:1023F000009801B0704700004FF0B0400068C0F393
:102400004000704782B0014601900420C5F60000EC
:10241000026822F47F42019B42EA0322026000919B
:1024200002B0704782B0014601904FF0B0400268A0
:1024300022F0F002019B1A430260009102B0704743
:102440004FF0B040016821F08061016070470000EA
:102450004FF0B040016841F08061016070470000BA
:102460004FF0B0400068C0F3C06070474FF0B0401C
:10247000016821F080710160704700004FF0B040AA
:10248000016841F080710160704700000C20C5F6C2
:102490000000006800F07000704700000C20C5F6D6
:1024A0000000006800F00300704700000C20C5F633
:1024B00000000068C0F30620704700000C20C5F63D
:1024C0000000006800F06040704700004FF0B0402E
:1024D0000068C0F3406070479020C5F600000168B6
:1024E00021F480310160704782B00146019088205C
:1024F000C5F60000026822F04052019B1A430260B8
:10250000009102B07047000082B00146019040F295
:102510000810C5F60000026822F00F02019B42EA93
:1025200013120260009102B07047000082B00146B1
:1025300001900820C5F60000026822F0F002019B1D
:102540001A430260009102B07047000082B0014659
:1025500001900820C5F60000026822F4E062019BA9
:102560001A430260009102B07047000082B0014639
:1025700001900820C5F60000026822F46052019B19
:102580001A430260009102B07047000082B0014619
:1025900001908820C5F60000026822F04062019B8D
:1025A0001A430260009102B07047000082B00146F9
:1025B00001908820C5F600000268019B6FF47F2C13
:1025C0006CEA131C02EA0C0203F47F4342EA031292
:1025D0000260009102B0704782B0014601908820ED
:1025E000C5F600000268019B4FF6FF7C6CEA030C05
:1025F00002EA0C0242EA03420260009102B0704714
:1026000082B0014601908820C5F60000026822F4DD
:102610004062019B1A430260009102B070470000C3
:1026200082B0014601909420C5F60000026822F4B1
:102630004042019B1A430260009102B070470000C3
:1026400082B0014601908820C5F60000026822F0A1
:102650004042019B1A430260009102B070470000A3
:1026600082B0014601909020C5F60000026822F475
:102670004072019B1A430260009102B07047000053
:1026800082B0014601908820C5F60000026822F45D
:102690004002019B1A430260009102B070470000A3
:1026A00082B0014601902420C5F60000026822F0A5
:1026B0000302019B1A430260009102B070470000C0
:1026C00082B0014601902420C5F60000026822F085
:1026D0003002019B1A430260009102B07047000073
:1026E00082B0014601900820C5F60000026822F081
:1026F0000302019B1A430260009102B07047000080
:1027000082B0014601908820C5F60000026822F0E0
:102710000302019B1A430260009102B0704700005F
:1027200080B582B00146019001980091FFF72EFF1D
:1027300002B080BD80B588B000200790069005905B
:1027400004900390042102900846FFF7ABFC01209F
:102750000190FFF7A7FC40F60000C4F600000090CF
:102760000199019AFDF758FF01980390049002998E
:102770000591069103A90098FDF790FD08B080BD72
:1027800080B540F21C00C2F2000042F60001C4F223
:1027900000010160002141607F228260FF22C2604F
:1027A00001618161C1614161FFF714FA002803D022
:1027B000FFE7FDF76BFDFFE780BD0000FFE7FEE7E9
:1027C000FFE7FEE780B58BB013468C4686460A903D
:1027D000099108920A9800F0070007900798C0F145
:1027E000070005280493CDF80CC0CDF808E003D30A
:1027F000FFE70420019004E00798C0F10700019072
:10280000FFE70198069007980430062803D8FFE7F1
:102810000020009003E0079803380090FFE700983D
:10282000059009980699012202FA01F10139084040
:1028300005998840089B02FA01F1013919400843C3
:102840000BB080BD7047000080B596B002A8502143
:102850000190FDF796FC4FF4005002900020149078
:10286000102015900198FDF7F3FF002803D0FFE733
:10287000FDF70CFDFFE716B080BD000080B584B009
:102880000146039000208DF807000091FFF7D8FD66
:10289000FDF7E2FE0290FFE7FFF7E2FD00280ED011
:1028A000FFE7FDF7D9FEDDF808E0A0EB0E000328F6
:1028B00004D3FFE703208DF8070000E0ECE79DF864
:1028C000070000283AD1FFE71020C5F60000016894
:1028D00021F4FE41039A126841EA02210160016875
:1028E00021F47811039A526811430160FFF7B0FD9B
:1028F000FDF7B2FE0290FFE7FFF7B2FD01280ED010
:10290000FFE7FDF7A9FEDDF808E0A0EB0E000328C5
:1029100004D3FFE703208DF8070000E0ECE79DF803
:102920000700002809D1FFE7039800691021C5F6C8
:1029300000010A6810430860FFE7FFE79DF8070001
:1029400004B080BD80B584B00146039000208DF8AE
:1029500007000091FFF774FDFDF77EFE0290FFE790
:10296000FFF77EFD00280ED0FFE7FDF775FEDDF8CE
:1029700008E0A0EB0E00032804D3FFE703208DF846
:10298000070000E0ECE79DF8070000283AD1FFE7D8
:102990001020C5F60000016821F4FE41039A126878
:1029A00041EA02210160016821F06061039A9268A6
:1029B00011430160FFF74CFDFDF74EFE0290FFE76B
:1029C000FFF74EFD01280ED0FFE7FDF745FEDDF8CD
:1029D00008E0A0EB0E00032804D3FFE703208DF8E6
:1029E000070000E0ECE79DF80700002809D1FFE7A9
:1029F000039800691021C5F600010A6810430860B9
:102A0000FFE7FFE79DF8070004B080BD80B584B004
:102A10000146039000208DF807000091FFF710FD9C
:102A2000FDF71AFE0290FFE7FFF71AFD00280ED00F
:102A3000FFE7FDF711FEDDF808E0A0EB0E0003282C
:102A400004D3FFE703208DF8070000E0ECE79DF8D2
:102A5000070000283AD1FFE71020C5F60000016802
:102A600021F4FE41039A126841EA022101600168E3
:102A700021F06041039AD26811430160FFF7E8FC3E
:102A8000FDF7EAFD0290FFE7FFF7EAFC01280ED010
:102A9000FFE7FDF7E1FDDDF808E0A0EB0E000328FD
:102AA00004D3FFE703208DF8070000E0ECE79DF872
:102AB0000700002809D1FFE7039800691021C5F637
:102AC00000010A6810430860FFE7FFE79DF8070070
:102AD00004B080BD80B594B00A46034612901191AF
:102AE00043F21410C0F600000168D0F804C0D0F81A
:102AF00008E0C0681090CDF83CE0CDF838C00D91EA
:102B000043F28800C0F600000168D0F804C0806875
:102B10000C90CDF82CC00A9143F22410C0F60000AE
:102B20000168D0F804C0D0F808E0C0680990CDF87A
:102B300020E0CDF81CC00691002005901198B0F55A
:102B4000007F019200931BD1FFE700200390FFE775
:102B50000398032813D8FFE7129803990DAA52F897
:102B60002110884206D8FFE7039806A951F82000F3
:102B7000059004E0FFE7039801300390E8E71AE0CE
:102B800000200290FFE70298022813D8FFE712986E
:102B900002990AAA52F82110884206D8FFE7029843
:102BA00006A951F82000059004E0FFE702980130E3
:102BB0000290E8E7FFE744F20000C5F60000016874
:102BC00021F00701059A11430160FDF745FD0490CE
:102BD000FFE744F20000C5F60000006800F00700BF
:102BE000059988420ED0FFE7FDF736FDDDF810E0CD
:102BF000A0EB0E00032804D3FFE703208DF84F005D
:102C000004E0E6E700208DF84F00FFE79DF84F0055
:102C100014B080BD80B588B0014607900798B128F0
:102C2000049107D3FFE743F2D400C0F60000C06A66
:102C300005900AE0079800F0F000800843F2D40104
:102C4000C0F6000108580590FFE705980390FFF7CC
:102C500085FA4FF03C0E0EEA900043F2940EC0F657
:102C6000000E5EF80000DDF80CE0BEFBF0F0069010
:102C700006984DF6836EC4F21B3EA0FB0E0E4FEA83
:102C80009E4E0290CDF804E0FDF7D0FDDDF804E0A3
:102C9000009070460099FFF71DFF08B080BD00004E
:102CA00080B586B001460590002004908DF80F0095
:102CB00005980068C06840060028029133D4FFE7F9
:102CC00005980068C16841F08001C160FDF7C4FC4F
:102CD0000490FFE705980068C068002140060028BE
:102CE000019107D4FFE79DF80F00013818BF0120BC
:102CF0000190FFE70198C007002813D0FFE7FDF718
:102D0000ABFCDDF810E0A0EB0E00B0F57A7F08D93F
:102D1000FFE70598042180F8211001208DF80F00AD
:102D2000FFE7D7E7FFE79DF80F0006B080BD000082
:102D300080B584B00146039000208DF80B00039805
:102D40000068C26822F08002C26003980068806850
:102D50008006002801910FD4FFE70398FEF7FAFFE1
:102D6000002808D0FFE70398042180F821100120F3
:102D70008DF80B00FFE7FFE79DF80B0004B080BD66
:102D800080B540F21C00C2F20000FEF7F9FE80BDE3
:102D90007047000080B584B0014602900298013867
:102DA000B0F1807F019103D3FFE7012003901BE086
:102DB000029801384EF21401CEF2000108604FF083
:102DC000FF300F2100F0DCF84EF21800CEF20000C8
:102DD000002101604EF21000CEF200004FF0070E0D
:102DE000C0F800E00391FFE7039804B080BD000045
:102DF00080B5FDF73DFC80BD80B59CB00AA8482198
:102E0000FDF7BFF900200990089007900690059003
:102E100004900390FDF712FD1020FFF77BFAFFE707
:102E200040F20040C5F600000168012262F34A2129
:102E30000160006800F4C060029002980190FFE712
:102E400006200A9000200B9001210C914FF4807114
:102E50000D9140210E910221159116911790082095
:102E600018904FF4C02019904FF0C0401B904FF0C5
:102E7000C0601A900AA8FEF7C9F8002803D0FFE73F
:102E8000FDF704FAFFE76F20039003200490002071
:102E90000590069007900890099003A80121FDF77E
:102EA00077FE002803D0FFE7FDF7F0F9FFE71CB03D
:102EB00080BD00004EF68850CEF20000016841F45B
:102EC000700101604FF0B040016841F00101016004
:102ED0000821C5F600014FF4E0220A6001684FF6B0
:102EE000FB62CFF6F622114001609421C5F6000185
:102EF0000A6822F005020A609821C5F600010A68F6
:102F000022F001020A600C21C5F6000141F2000224
:102F1000C2F204220A601021C5F600010A600168AD
:102F200021F4802101601820C5F600000021016015
:102F300070470000FFE7FEE782B001468DF807000A
:102F40009DF90700002800910FDBFFE79DF90700BE
:102F500000F01F01012202FA01F140094EF20012B5
:102F6000CEF2000242F82010FFE702B070470000E6
:102F70004EF60C50CEF200000068C0F302207047FD
:102F800084B00A4603468DF80F0002919DF90F00A8
:102F90000028019200930ADBFFE7029800019DF9E7
:102FA0000F104EF20042CEF2000288540BE002985D
:102FB00000019DF80F1001F00F014EF61452CEF2F1
:102FC00000028854FFE704B07047000084B0014657
:102FD0000390039800F0070001904EF60C50CEF2DB
:102FE000000002680292029A4FF6FF031A40029212
:102FF000029A019B42EA03220023C0F2FA531A43C9
:103000000292029A0260009104B0704780B586B0C7
:10301000002005900390FDF739FB0290FFF7ECFECE
:10302000FFF712FCFFF786FBFFF7AAFBFEF7E2FEB5
:10303000032001900399039AFDF79EFB0198FDF789
:103040008FFB03988DF81300FFE743F23411C0F6AD
:103050000001A02005224FF47A73FEF7CFFF012173
:1030600000900846FDF7BEF8EFE702E008C8121F1F
:1030700008C1002AFAD170477047002001E001C161
:10308000121F002AFBD17047060000000C00000050
:103090001000000001000000030000000500000017
:1030A0000100000001000000060000000A0000000E
:1030B00020000000020000000400000008000000E2
:1030C000100000004000000080000000000100002F
:1030D00000020000A0860100400D0300801A0600D7
:1030E00000350C0040420F0080841E0000093D00A6
:1030F00000127A000024F40000366E010048E80156
:10310000006CDC0200000000000000000000000075
:103110000000000012000000240000003600000043
:10312000400000000000000001000000020000005C
:103130000300000068656C6C6F00000060310008DF
:1031400008000020100000006A30000870310008FC
:1031500018000020300400007A3000080000000051
:1031600000093D0001000000100000000000000008
:040000050800013DB1
:00000001FF
